{
  "contractName": "Cooldowns",
  "abi": [
    {
      "inputs": [
        {
          "internalType": "uint256",
          "name": "",
          "type": "uint256"
        }
      ],
      "name": "cooldowns",
      "outputs": [
        {
          "internalType": "uint32",
          "name": "",
          "type": "uint32"
        }
      ],
      "stateMutability": "view",
      "type": "function"
    }
  ],
  "bytecode": "0x6080604052604051806101c00160405280607863ffffffff1663ffffffff16815260200160f063ffffffff1663ffffffff16815260200161025863ffffffff1663ffffffff1681526020016104b063ffffffff1663ffffffff168152602001610e1063ffffffff1663ffffffff168152602001611c2063ffffffff1663ffffffff16815260200161384063ffffffff1663ffffffff16815260200161708063ffffffff1663ffffffff16815260200161e10063ffffffff1663ffffffff1681526020016201c20063ffffffff1663ffffffff1681526020016202a30063ffffffff1663ffffffff1681526020016205460063ffffffff1663ffffffff168152602001620a8c0063ffffffff1663ffffffff1681526020016212750063ffffffff1663ffffffff16815250600090600e61013992919061014c565b5034801561014657600080fd5b5061020c565b82600e6007016008900481019282156101de5791602002820160005b838211156101ac57835183826101000a81548163ffffffff021916908363ffffffff1602179055509260200192600401602081600301049283019260010302610168565b80156101dc5782816101000a81549063ffffffff02191690556004016020816003010492830192600103026101ac565b505b5090506101eb91906101ef565b5090565b5b808211156102085760008160009055506001016101f0565b5090565b6101688061021b6000396000f3fe608060405234801561001057600080fd5b506004361061002b5760003560e01c80639d6fac6f14610030575b600080fd5b61004a600480360381019061004591906100cb565b610060565b6040516100579190610117565b60405180910390f35b600081600e811061007057600080fd5b60089182820401919006600402915054906101000a900463ffffffff1681565b600080fd5b6000819050919050565b6100a881610095565b81146100b357600080fd5b50565b6000813590506100c58161009f565b92915050565b6000602082840312156100e1576100e0610090565b5b60006100ef848285016100b6565b91505092915050565b600063ffffffff82169050919050565b610111816100f8565b82525050565b600060208201905061012c6000830184610108565b9291505056fea26469706673582212202782502ab39068486aadcf2ce4e4b162e957e7e7c56fed18836b1d29cf6830dc64736f6c63430008130033",
  "immutableReferences": {},
  "source": "// SPDX-License-Identifier: MIT\r\npragma solidity ^0.8.0;\r\n\r\ncontract Cooldowns {\r\n    // Cooldown durations in blocks (assuming 0.5 seconds per block)\r\n    uint32[14] public cooldowns = [\r\n        uint32(120),      // 1 minute\r\n        uint32(240),      // 2 minutes\r\n        uint32(600),      // 5 minutes\r\n        uint32(1200),     // 10 minutes\r\n        uint32(3600),     // 30 minutes\r\n        uint32(7200),     // 1 hour\r\n        uint32(14400),    // 2 hours\r\n        uint32(28800),    // 4 hours\r\n        uint32(57600),    // 8 hours\r\n        uint32(115200),   // 16 hours\r\n        uint32(172800),   // 1 day\r\n        uint32(345600),   // 2 days\r\n        uint32(691200),   // 4 days\r\n        uint32(1209600)   // 7 days\r\n    ];\r\n}\r\n",
  "sourcePath": "C:\\Users\\cheny\\Documents\\GitHub\\crypto-pet\\contracts\\Cooldowns.sol",
  "compiler": {
    "name": "solc",
    "version": "0.8.19+commit.7dd6d404.Emscripten.clang"
  },
  "schemaVersion": "3.4.13",
  "updatedAt": "2023-05-01T23:27:45.092Z",
  "devdoc": {
    "kind": "dev",
    "methods": {},
    "version": 1
  },
  "userdoc": {
    "kind": "user",
    "methods": {},
    "version": 1
  }
}