{
  "contractName": "PetAuction",
  "abi": [
    {
      "inputs": [
        {
          "internalType": "address",
          "name": "_petContract",
          "type": "address"
        },
        {
          "internalType": "address",
          "name": "_tokenContract",
          "type": "address"
        },
        {
          "internalType": "uint256",
          "name": "_auctionDuration",
          "type": "uint256"
        }
      ],
      "stateMutability": "nonpayable",
      "type": "constructor"
    },
    {
      "anonymous": false,
      "inputs": [
        {
          "indexed": false,
          "internalType": "uint256",
          "name": "petId",
          "type": "uint256"
        },
        {
          "indexed": false,
          "internalType": "address",
          "name": "bidder",
          "type": "address"
        },
        {
          "indexed": false,
          "internalType": "uint256",
          "name": "bidAmount",
          "type": "uint256"
        }
      ],
      "name": "AuctionBid",
      "type": "event"
    },
    {
      "anonymous": false,
      "inputs": [
        {
          "indexed": false,
          "internalType": "uint256",
          "name": "petId",
          "type": "uint256"
        }
      ],
      "name": "AuctionCancelled",
      "type": "event"
    },
    {
      "anonymous": false,
      "inputs": [
        {
          "indexed": false,
          "internalType": "uint256",
          "name": "petId",
          "type": "uint256"
        },
        {
          "indexed": false,
          "internalType": "uint256",
          "name": "startPrice",
          "type": "uint256"
        },
        {
          "indexed": false,
          "internalType": "uint256",
          "name": "endBlock",
          "type": "uint256"
        }
      ],
      "name": "AuctionCreated",
      "type": "event"
    },
    {
      "anonymous": false,
      "inputs": [
        {
          "indexed": false,
          "internalType": "uint256",
          "name": "petId",
          "type": "uint256"
        },
        {
          "indexed": false,
          "internalType": "address",
          "name": "winner",
          "type": "address"
        },
        {
          "indexed": false,
          "internalType": "uint256",
          "name": "winningAmount",
          "type": "uint256"
        }
      ],
      "name": "AuctionEnded",
      "type": "event"
    },
    {
      "anonymous": false,
      "inputs": [
        {
          "indexed": true,
          "internalType": "address",
          "name": "previousOwner",
          "type": "address"
        },
        {
          "indexed": true,
          "internalType": "address",
          "name": "newOwner",
          "type": "address"
        }
      ],
      "name": "OwnershipTransferred",
      "type": "event"
    },
    {
      "inputs": [],
      "name": "auctionDuration",
      "outputs": [
        {
          "internalType": "uint256",
          "name": "",
          "type": "uint256"
        }
      ],
      "stateMutability": "view",
      "type": "function"
    },
    {
      "inputs": [
        {
          "internalType": "uint256",
          "name": "",
          "type": "uint256"
        }
      ],
      "name": "auctions",
      "outputs": [
        {
          "internalType": "address",
          "name": "seller",
          "type": "address"
        },
        {
          "internalType": "uint256",
          "name": "petId",
          "type": "uint256"
        },
        {
          "internalType": "uint256",
          "name": "startPrice",
          "type": "uint256"
        },
        {
          "internalType": "uint256",
          "name": "endBlock",
          "type": "uint256"
        },
        {
          "internalType": "address",
          "name": "highestBidder",
          "type": "address"
        },
        {
          "internalType": "uint256",
          "name": "highestBid",
          "type": "uint256"
        }
      ],
      "stateMutability": "view",
      "type": "function"
    },
    {
      "inputs": [],
      "name": "owner",
      "outputs": [
        {
          "internalType": "address",
          "name": "",
          "type": "address"
        }
      ],
      "stateMutability": "view",
      "type": "function"
    },
    {
      "inputs": [],
      "name": "petContract",
      "outputs": [
        {
          "internalType": "contract IERC721",
          "name": "",
          "type": "address"
        }
      ],
      "stateMutability": "view",
      "type": "function"
    },
    {
      "inputs": [],
      "name": "renounceOwnership",
      "outputs": [],
      "stateMutability": "nonpayable",
      "type": "function"
    },
    {
      "inputs": [],
      "name": "tokenContract",
      "outputs": [
        {
          "internalType": "contract IERC20",
          "name": "",
          "type": "address"
        }
      ],
      "stateMutability": "view",
      "type": "function"
    },
    {
      "inputs": [
        {
          "internalType": "address",
          "name": "newOwner",
          "type": "address"
        }
      ],
      "name": "transferOwnership",
      "outputs": [],
      "stateMutability": "nonpayable",
      "type": "function"
    },
    {
      "inputs": [
        {
          "internalType": "uint256",
          "name": "_petId",
          "type": "uint256"
        },
        {
          "internalType": "uint256",
          "name": "_startPrice",
          "type": "uint256"
        }
      ],
      "name": "createAuction",
      "outputs": [],
      "stateMutability": "nonpayable",
      "type": "function"
    },
    {
      "inputs": [
        {
          "internalType": "uint256",
          "name": "_petId",
          "type": "uint256"
        }
      ],
      "name": "cancelAuction",
      "outputs": [],
      "stateMutability": "nonpayable",
      "type": "function"
    },
    {
      "inputs": [
        {
          "internalType": "uint256",
          "name": "_petId",
          "type": "uint256"
        },
        {
          "internalType": "uint256",
          "name": "_bidAmount",
          "type": "uint256"
        }
      ],
      "name": "bid",
      "outputs": [],
      "stateMutability": "nonpayable",
      "type": "function"
    },
    {
      "inputs": [
        {
          "internalType": "uint256",
          "name": "_petId",
          "type": "uint256"
        }
      ],
      "name": "endAuction",
      "outputs": [],
      "stateMutability": "nonpayable",
      "type": "function"
    },
    {
      "inputs": [
        {
          "internalType": "uint256",
          "name": "_petId",
          "type": "uint256"
        }
      ],
      "name": "getAuction",
      "outputs": [
        {
          "internalType": "address",
          "name": "seller",
          "type": "address"
        },
        {
          "internalType": "uint256",
          "name": "startPrice",
          "type": "uint256"
        },
        {
          "internalType": "uint256",
          "name": "endBlock",
          "type": "uint256"
        },
        {
          "internalType": "address",
          "name": "highestBidder",
          "type": "address"
        },
        {
          "internalType": "uint256",
          "name": "highestBid",
          "type": "uint256"
        }
      ],
      "stateMutability": "view",
      "type": "function"
    }
  ],
  "bytecode": "0x60806040523480156200001157600080fd5b506040516200214238038062002142833981810160405281019062000037919062000264565b60016000819055506200005f62000053620000f160201b60201c565b620000f960201b60201c565b82600260006101000a81548173ffffffffffffffffffffffffffffffffffffffff021916908373ffffffffffffffffffffffffffffffffffffffff16021790555081600360006101000a81548173ffffffffffffffffffffffffffffffffffffffff021916908373ffffffffffffffffffffffffffffffffffffffff16021790555080600481905550505050620002c0565b600033905090565b6000600160009054906101000a900473ffffffffffffffffffffffffffffffffffffffff16905081600160006101000a81548173ffffffffffffffffffffffffffffffffffffffff021916908373ffffffffffffffffffffffffffffffffffffffff1602179055508173ffffffffffffffffffffffffffffffffffffffff168173ffffffffffffffffffffffffffffffffffffffff167f8be0079c531659141344cd1fd0a4f28419497f9722a3daafe3b4186f6b6457e060405160405180910390a35050565b600080fd5b600073ffffffffffffffffffffffffffffffffffffffff82169050919050565b6000620001f182620001c4565b9050919050565b6200020381620001e4565b81146200020f57600080fd5b50565b6000815190506200022381620001f8565b92915050565b6000819050919050565b6200023e8162000229565b81146200024a57600080fd5b50565b6000815190506200025e8162000233565b92915050565b60008060006060848603121562000280576200027f620001bf565b5b6000620002908682870162000212565b9350506020620002a38682870162000212565b9250506040620002b6868287016200024d565b9150509250925092565b611e7280620002d06000396000f3fe608060405234801561001057600080fd5b50600436106100b45760003560e01c806378bd79351161007157806378bd79351461016c5780638da5cb5b146101a057806396b5a755146101be5780639997e137146101da578063b9a2de3a146101f8578063f2fde38b14610214576100b4565b80630121683f146100b95780630cbf54c8146100d557806355a373d6146100f3578063571a26a014610111578063598647f814610146578063715018a614610162575b600080fd5b6100d360048036038101906100ce91906113c9565b610230565b005b6100dd6105c2565b6040516100ea9190611418565b60405180910390f35b6100fb6105c8565b60405161010891906114b2565b60405180910390f35b61012b600480360381019061012691906114cd565b6105ee565b60405161013d9695949392919061151b565b60405180910390f35b610160600480360381019061015b91906113c9565b61066a565b005b61016a6109b6565b005b610186600480360381019061018191906114cd565b6109ca565b60405161019795949392919061157c565b60405180910390f35b6101a8610a55565b6040516101b591906115cf565b60405180910390f35b6101d860048036038101906101d391906114cd565b610a7f565b005b6101e2610be7565b6040516101ef919061160b565b60405180910390f35b610212600480360381019061020d91906114cd565b610c0d565b005b61022e60048036038101906102299190611652565b611166565b005b3373ffffffffffffffffffffffffffffffffffffffff16600260009054906101000a900473ffffffffffffffffffffffffffffffffffffffff1673ffffffffffffffffffffffffffffffffffffffff16636352211e846040518263ffffffff1660e01b81526004016102a29190611418565b602060405180830381865afa1580156102bf573d6000803e3d6000fd5b505050506040513d601f19601f820116820180604052508101906102e39190611694565b73ffffffffffffffffffffffffffffffffffffffff1614610339576040517f08c379a00000000000000000000000000000000000000000000000000000000081526004016103309061171e565b60405180910390fd5b3073ffffffffffffffffffffffffffffffffffffffff16600260009054906101000a900473ffffffffffffffffffffffffffffffffffffffff1673ffffffffffffffffffffffffffffffffffffffff1663081812fc846040518263ffffffff1660e01b81526004016103ab9190611418565b602060405180830381865afa1580156103c8573d6000803e3d6000fd5b505050506040513d601f19601f820116820180604052508101906103ec9190611694565b73ffffffffffffffffffffffffffffffffffffffff1614610442576040517f08c379a0000000000000000000000000000000000000000000000000000000008152600401610439906117b0565b60405180910390fd5b6040518060c001604052803373ffffffffffffffffffffffffffffffffffffffff1681526020018381526020018281526020016004544361048391906117ff565b8152602001600073ffffffffffffffffffffffffffffffffffffffff16815260200160008152506005600084815260200190815260200160002060008201518160000160006101000a81548173ffffffffffffffffffffffffffffffffffffffff021916908373ffffffffffffffffffffffffffffffffffffffff16021790555060208201518160010155604082015181600201556060820151816003015560808201518160040160006101000a81548173ffffffffffffffffffffffffffffffffffffffff021916908373ffffffffffffffffffffffffffffffffffffffff16021790555060a082015181600501559050507fd6eddd1118d71820909c1197aa966dbc15ed6f508554252169cc3d5ccac756ca8282600454436105a791906117ff565b6040516105b693929190611833565b60405180910390a15050565b60045481565b600360009054906101000a900473ffffffffffffffffffffffffffffffffffffffff1681565b60056020528060005260406000206000915090508060000160009054906101000a900473ffffffffffffffffffffffffffffffffffffffff16908060010154908060020154908060030154908060040160009054906101000a900473ffffffffffffffffffffffffffffffffffffffff16908060050154905086565b6106726111e9565b600060056000848152602001908152602001600020905080600301544311156106d0576040517f08c379a00000000000000000000000000000000000000000000000000000000081526004016106c7906118b6565b60405180910390fd5b8060020154821015610717576040517f08c379a000000000000000000000000000000000000000000000000000000000815260040161070e90611948565b60405180910390fd5b8060050154821161075d576040517f08c379a0000000000000000000000000000000000000000000000000000000008152600401610754906119da565b60405180910390fd5b600073ffffffffffffffffffffffffffffffffffffffff168160040160009054906101000a900473ffffffffffffffffffffffffffffffffffffffff1673ffffffffffffffffffffffffffffffffffffffff161461087f57600360009054906101000a900473ffffffffffffffffffffffffffffffffffffffff1673ffffffffffffffffffffffffffffffffffffffff1663a9059cbb8260040160009054906101000a900473ffffffffffffffffffffffffffffffffffffffff1683600501546040518363ffffffff1660e01b815260040161083a9291906119fa565b6020604051808303816000875af1158015610859573d6000803e3d6000fd5b505050506040513d601f19601f8201168201806040525081019061087d9190611a5b565b505b600360009054906101000a900473ffffffffffffffffffffffffffffffffffffffff1673ffffffffffffffffffffffffffffffffffffffff166323b872dd3330856040518463ffffffff1660e01b81526004016108de93929190611a88565b6020604051808303816000875af11580156108fd573d6000803e3d6000fd5b505050506040513d601f19601f820116820180604052508101906109219190611a5b565b50338160040160006101000a81548173ffffffffffffffffffffffffffffffffffffffff021916908373ffffffffffffffffffffffffffffffffffffffff1602179055508181600501819055507fb8d756f2d1da4663767eb4d559780ace84f2f65a421a60ddcb47e8b2e5d2fd268333846040516109a193929190611abf565b60405180910390a1506109b2611238565b5050565b6109be611242565b6109c860006112c0565b565b6000806000806000806005600088815260200190815260200160002090508060000160009054906101000a900473ffffffffffffffffffffffffffffffffffffffff16955080600201549450806003015493508060040160009054906101000a900473ffffffffffffffffffffffffffffffffffffffff169250806005015491505091939590929450565b6000600160009054906101000a900473ffffffffffffffffffffffffffffffffffffffff16905090565b60006005600083815260200190815260200160002090503373ffffffffffffffffffffffffffffffffffffffff168160000160009054906101000a900473ffffffffffffffffffffffffffffffffffffffff1673ffffffffffffffffffffffffffffffffffffffff1614610b28576040517f08c379a0000000000000000000000000000000000000000000000000000000008152600401610b1f90611b42565b60405180910390fd5b60056000838152602001908152602001600020600080820160006101000a81549073ffffffffffffffffffffffffffffffffffffffff02191690556001820160009055600282016000905560038201600090556004820160006101000a81549073ffffffffffffffffffffffffffffffffffffffff0219169055600582016000905550507f2809c7e17bf978fbc7194c0a694b638c4215e9140cacc6c38ca36010b45697df82604051610bdb9190611418565b60405180910390a15050565b600260009054906101000a900473ffffffffffffffffffffffffffffffffffffffff1681565b610c156111e9565b600060056000838152602001908152602001600020905080600301544311610c72576040517f08c379a0000000000000000000000000000000000000000000000000000000008152600401610c6990611bae565b60405180910390fd5b3373ffffffffffffffffffffffffffffffffffffffff168160000160009054906101000a900473ffffffffffffffffffffffffffffffffffffffff1673ffffffffffffffffffffffffffffffffffffffff161480610d1f57503373ffffffffffffffffffffffffffffffffffffffff168160040160009054906101000a900473ffffffffffffffffffffffffffffffffffffffff1673ffffffffffffffffffffffffffffffffffffffff16145b610d5e576040517f08c379a0000000000000000000000000000000000000000000000000000000008152600401610d5590611c40565b60405180910390fd5b600073ffffffffffffffffffffffffffffffffffffffff168160040160009054906101000a900473ffffffffffffffffffffffffffffffffffffffff1673ffffffffffffffffffffffffffffffffffffffff1614610fc057600360009054906101000a900473ffffffffffffffffffffffffffffffffffffffff1673ffffffffffffffffffffffffffffffffffffffff1663a9059cbb8260000160009054906101000a900473ffffffffffffffffffffffffffffffffffffffff1683600501546040518363ffffffff1660e01b8152600401610e3b9291906119fa565b6020604051808303816000875af1158015610e5a573d6000803e3d6000fd5b505050506040513d601f19601f82011682018060405250810190610e7e9190611a5b565b50600260009054906101000a900473ffffffffffffffffffffffffffffffffffffffff1673ffffffffffffffffffffffffffffffffffffffff166323b872dd8260000160009054906101000a900473ffffffffffffffffffffffffffffffffffffffff168360040160009054906101000a900473ffffffffffffffffffffffffffffffffffffffff16856040518463ffffffff1660e01b8152600401610f2693929190611a88565b600060405180830381600087803b158015610f4057600080fd5b505af1158015610f54573d6000803e3d6000fd5b505050507fd2aa34a4fdbbc6dff6a3e56f46e0f3ae2a31d7785ff3487aa5c95c642acea501828260040160009054906101000a900473ffffffffffffffffffffffffffffffffffffffff168360050154604051610fb393929190611abf565b60405180910390a16110d6565b600260009054906101000a900473ffffffffffffffffffffffffffffffffffffffff1673ffffffffffffffffffffffffffffffffffffffff166323b872dd8260000160009054906101000a900473ffffffffffffffffffffffffffffffffffffffff168360000160009054906101000a900473ffffffffffffffffffffffffffffffffffffffff16856040518463ffffffff1660e01b815260040161106793929190611a88565b600060405180830381600087803b15801561108157600080fd5b505af1158015611095573d6000803e3d6000fd5b505050507fd2aa34a4fdbbc6dff6a3e56f46e0f3ae2a31d7785ff3487aa5c95c642acea501826000806040516110cd93929190611c9b565b60405180910390a15b60056000838152602001908152602001600020600080820160006101000a81549073ffffffffffffffffffffffffffffffffffffffff02191690556001820160009055600282016000905560038201600090556004820160006101000a81549073ffffffffffffffffffffffffffffffffffffffff02191690556005820160009055505050611163611238565b50565b61116e611242565b600073ffffffffffffffffffffffffffffffffffffffff168173ffffffffffffffffffffffffffffffffffffffff16036111dd576040517f08c379a00000000000000000000000000000000000000000000000000000000081526004016111d490611d44565b60405180910390fd5b6111e6816112c0565b50565b60026000540361122e576040517f08c379a000000000000000000000000000000000000000000000000000000000815260040161122590611db0565b60405180910390fd5b6002600081905550565b6001600081905550565b61124a611386565b73ffffffffffffffffffffffffffffffffffffffff16611268610a55565b73ffffffffffffffffffffffffffffffffffffffff16146112be576040517f08c379a00000000000000000000000000000000000000000000000000000000081526004016112b590611e1c565b60405180910390fd5b565b6000600160009054906101000a900473ffffffffffffffffffffffffffffffffffffffff16905081600160006101000a81548173ffffffffffffffffffffffffffffffffffffffff021916908373ffffffffffffffffffffffffffffffffffffffff1602179055508173ffffffffffffffffffffffffffffffffffffffff168173ffffffffffffffffffffffffffffffffffffffff167f8be0079c531659141344cd1fd0a4f28419497f9722a3daafe3b4186f6b6457e060405160405180910390a35050565b600033905090565b600080fd5b6000819050919050565b6113a681611393565b81146113b157600080fd5b50565b6000813590506113c38161139d565b92915050565b600080604083850312156113e0576113df61138e565b5b60006113ee858286016113b4565b92505060206113ff858286016113b4565b9150509250929050565b61141281611393565b82525050565b600060208201905061142d6000830184611409565b92915050565b600073ffffffffffffffffffffffffffffffffffffffff82169050919050565b6000819050919050565b600061147861147361146e84611433565b611453565b611433565b9050919050565b600061148a8261145d565b9050919050565b600061149c8261147f565b9050919050565b6114ac81611491565b82525050565b60006020820190506114c760008301846114a3565b92915050565b6000602082840312156114e3576114e261138e565b5b60006114f1848285016113b4565b91505092915050565b600061150582611433565b9050919050565b611515816114fa565b82525050565b600060c082019050611530600083018961150c565b61153d6020830188611409565b61154a6040830187611409565b6115576060830186611409565b611564608083018561150c565b61157160a0830184611409565b979650505050505050565b600060a082019050611591600083018861150c565b61159e6020830187611409565b6115ab6040830186611409565b6115b8606083018561150c565b6115c56080830184611409565b9695505050505050565b60006020820190506115e4600083018461150c565b92915050565b60006115f58261147f565b9050919050565b611605816115ea565b82525050565b600060208201905061162060008301846115fc565b92915050565b61162f816114fa565b811461163a57600080fd5b50565b60008135905061164c81611626565b92915050565b6000602082840312156116685761166761138e565b5b60006116768482850161163d565b91505092915050565b60008151905061168e81611626565b92915050565b6000602082840312156116aa576116a961138e565b5b60006116b88482850161167f565b91505092915050565b600082825260208201905092915050565b7f43616c6c6572206973206e6f742074686520706574206f776e65720000000000600082015250565b6000611708601b836116c1565b9150611713826116d2565b602082019050919050565b60006020820190508181036000830152611737816116fb565b9050919050565b7f436f6e7472616374206973206e6f7420617070726f76656420746f207472616e60008201527f7366657220746865207065740000000000000000000000000000000000000000602082015250565b600061179a602c836116c1565b91506117a58261173e565b604082019050919050565b600060208201905081810360008301526117c98161178d565b9050919050565b7f4e487b7100000000000000000000000000000000000000000000000000000000600052601160045260246000fd5b600061180a82611393565b915061181583611393565b925082820190508082111561182d5761182c6117d0565b5b92915050565b60006060820190506118486000830186611409565b6118556020830185611409565b6118626040830184611409565b949350505050565b7f41756374696f6e2068617320616c726561647920656e64656400000000000000600082015250565b60006118a06019836116c1565b91506118ab8261186a565b602082019050919050565b600060208201905081810360008301526118cf81611893565b9050919050565b7f42696420616d6f756e74206973206c6f776572207468616e207468652073746160008201527f7274696e67207072696365000000000000000000000000000000000000000000602082015250565b6000611932602b836116c1565b915061193d826118d6565b604082019050919050565b6000602082019050818103600083015261196181611925565b9050919050565b7f42696420616d6f756e74206d75737420626520686967686572207468616e207460008201527f68652063757272656e7420686967686573742062696400000000000000000000602082015250565b60006119c46036836116c1565b91506119cf82611968565b604082019050919050565b600060208201905081810360008301526119f3816119b7565b9050919050565b6000604082019050611a0f600083018561150c565b611a1c6020830184611409565b9392505050565b60008115159050919050565b611a3881611a23565b8114611a4357600080fd5b50565b600081519050611a5581611a2f565b92915050565b600060208284031215611a7157611a7061138e565b5b6000611a7f84828501611a46565b91505092915050565b6000606082019050611a9d600083018661150c565b611aaa602083018561150c565b611ab76040830184611409565b949350505050565b6000606082019050611ad46000830186611409565b611ae1602083018561150c565b611aee6040830184611409565b949350505050565b7f43616c6c6572206973206e6f7420746865207065742073656c6c657200000000600082015250565b6000611b2c601c836116c1565b9150611b3782611af6565b602082019050919050565b60006020820190508181036000830152611b5b81611b1f565b9050919050565b7f41756374696f6e20686173206e6f7420656e6465642079657400000000000000600082015250565b6000611b986019836116c1565b9150611ba382611b62565b602082019050919050565b60006020820190508181036000830152611bc781611b8b565b9050919050565b7f4f6e6c79207468652073656c6c6572206f72206869676865737420626964646560008201527f722063616e20656e64207468652061756374696f6e0000000000000000000000602082015250565b6000611c2a6035836116c1565b9150611c3582611bce565b604082019050919050565b60006020820190508181036000830152611c5981611c1d565b9050919050565b6000819050919050565b6000611c85611c80611c7b84611c60565b611453565b611393565b9050919050565b611c9581611c6a565b82525050565b6000606082019050611cb06000830186611409565b611cbd602083018561150c565b611cca6040830184611c8c565b949350505050565b7f4f776e61626c653a206e6577206f776e657220697320746865207a65726f206160008201527f6464726573730000000000000000000000000000000000000000000000000000602082015250565b6000611d2e6026836116c1565b9150611d3982611cd2565b604082019050919050565b60006020820190508181036000830152611d5d81611d21565b9050919050565b7f5265656e7472616e637947756172643a207265656e7472616e742063616c6c00600082015250565b6000611d9a601f836116c1565b9150611da582611d64565b602082019050919050565b60006020820190508181036000830152611dc981611d8d565b9050919050565b7f4f776e61626c653a2063616c6c6572206973206e6f7420746865206f776e6572600082015250565b6000611e066020836116c1565b9150611e1182611dd0565b602082019050919050565b60006020820190508181036000830152611e3581611df9565b905091905056fea2646970667358221220d71790b4d4c34fc94502b4a0f1c039760f5f161d29c8f479ab67600642ab74cb64736f6c63430008130033",
  "immutableReferences": {},
  "source": "// SPDX-License-Identifier: MIT\r\npragma solidity ^0.8.0;\r\n\r\nimport \"@openzeppelin/contracts/token/ERC20/IERC20.sol\";\r\nimport \"@openzeppelin/contracts/token/ERC721/IERC721.sol\";\r\nimport \"@openzeppelin/contracts/security/ReentrancyGuard.sol\";\r\nimport \"@openzeppelin/contracts/access/Ownable.sol\";\r\n\r\ncontract PetAuction is ReentrancyGuard, Ownable {\r\n    struct Auction {\r\n        address seller;\r\n        uint256 petId;\r\n        uint256 startPrice;\r\n        uint256 endBlock;\r\n        address highestBidder;\r\n        uint256 highestBid;\r\n    }\r\n\r\n    IERC721 public petContract;\r\n    IERC20 public tokenContract;\r\n    uint256 public auctionDuration;\r\n\r\n    mapping(uint256 => Auction) public auctions;\r\n\r\n    event AuctionCreated(uint256 petId, uint256 startPrice, uint256 endBlock);\r\n    event AuctionCancelled(uint256 petId);\r\n    event AuctionBid(uint256 petId, address bidder, uint256 bidAmount);\r\n    event AuctionEnded(uint256 petId, address winner, uint256 winningAmount);\r\n\r\n    constructor(address _petContract, address _tokenContract, uint256 _auctionDuration) {\r\n        petContract = IERC721(_petContract);\r\n        tokenContract = IERC20(_tokenContract);\r\n        auctionDuration = _auctionDuration;\r\n    }\r\n\r\n    function createAuction(uint256 _petId, uint256 _startPrice) external {\r\n        require(petContract.ownerOf(_petId) == msg.sender, \"Caller is not the pet owner\");\r\n        require(petContract.getApproved(_petId) == address(this), \"Contract is not approved to transfer the pet\");\r\n\r\n        auctions[_petId] = Auction({\r\n            seller: msg.sender,\r\n            petId: _petId,\r\n            startPrice: _startPrice,\r\n            endBlock: block.number + auctionDuration,\r\n            highestBidder: address(0),\r\n            highestBid: 0\r\n        });\r\n\r\n        emit AuctionCreated(_petId, _startPrice, block.number + auctionDuration);\r\n    }\r\n\r\n    function cancelAuction(uint256 _petId) external {\r\n        Auction storage auction = auctions[_petId];\r\n        require(auction.seller == msg.sender, \"Caller is not the pet seller\");\r\n\r\n        delete auctions[_petId];\r\n        emit AuctionCancelled(_petId);\r\n    }\r\n\r\n    function bid(uint256 _petId, uint256 _bidAmount) external nonReentrant {\r\n        Auction storage auction = auctions[_petId];\r\n        require(block.number <= auction.endBlock, \"Auction has already ended\");\r\n        require(_bidAmount >= auction.startPrice, \"Bid amount is lower than the starting price\");\r\n        require(_bidAmount > auction.highestBid, \"Bid amount must be higher than the current highest bid\");\r\n\r\n        // Refund previous highest bidder\r\n        if (auction.highestBidder != address(0)) {\r\n            tokenContract.transfer(auction.highestBidder, auction.highestBid);\r\n        }\r\n\r\n        // Transfer tokens from bidder to the auction contract\r\n        tokenContract.transferFrom(msg.sender, address(this), _bidAmount);\r\n\r\n        // Update auction with new highest bidder and highest bid\r\n        auction.highestBidder = msg.sender;\r\n        auction.highestBid = _bidAmount;\r\n\r\n        emit AuctionBid(_petId, msg.sender, _bidAmount);\r\n    }\r\n\r\n        function endAuction(uint256 _petId) external nonReentrant {\r\n        Auction storage auction = auctions[_petId];\r\n        require(block.number > auction.endBlock, \"Auction has not ended yet\");\r\n        require(auction.seller == msg.sender || auction.highestBidder == msg.sender, \"Only the seller or highest bidder can end the auction\");\r\n\r\n        if (auction.highestBidder != address(0)) {\r\n            // Transfer the winning bid amount to the seller\r\n            tokenContract.transfer(auction.seller, auction.highestBid);\r\n\r\n            // Transfer the pet to the highest bidder\r\n            petContract.transferFrom(auction.seller, auction.highestBidder, _petId);\r\n\r\n            emit AuctionEnded(_petId, auction.highestBidder, auction.highestBid);\r\n        } else {\r\n            // No bids were made, allow the pet to be returned to the seller\r\n            petContract.transferFrom(auction.seller, auction.seller, _petId);\r\n            emit AuctionEnded(_petId, address(0), 0);\r\n        }\r\n\r\n        // Remove the auction from storage\r\n        delete auctions[_petId];\r\n    }\r\n\r\n    function getAuction(uint256 _petId) external view returns (\r\n        address seller,\r\n        uint256 startPrice,\r\n        uint256 endBlock,\r\n        address highestBidder,\r\n        uint256 highestBid\r\n    ) {\r\n        Auction storage auction = auctions[_petId];\r\n        seller = auction.seller;\r\n        startPrice = auction.startPrice;\r\n        endBlock = auction.endBlock;\r\n        highestBidder = auction.highestBidder;\r\n        highestBid = auction.highestBid;\r\n    }\r\n}\r\n\r\n",
  "sourcePath": "C:\\Users\\cheny\\Documents\\GitHub\\crypto-pet\\contracts\\PetAuction.sol",
  "compiler": {
    "name": "solc",
    "version": "0.8.19+commit.7dd6d404.Emscripten.clang"
  },
  "schemaVersion": "3.4.13",
  "updatedAt": "2023-05-01T23:27:45.096Z",
  "devdoc": {
    "kind": "dev",
    "methods": {
      "owner()": {
        "details": "Returns the address of the current owner."
      },
      "renounceOwnership()": {
        "details": "Leaves the contract without owner. It will not be possible to call `onlyOwner` functions anymore. Can only be called by the current owner. NOTE: Renouncing ownership will leave the contract without an owner, thereby removing any functionality that is only available to the owner."
      },
      "transferOwnership(address)": {
        "details": "Transfers ownership of the contract to a new account (`newOwner`). Can only be called by the current owner."
      }
    },
    "version": 1
  },
  "userdoc": {
    "kind": "user",
    "methods": {},
    "version": 1
  }
}