{
  "contractName": "PetOwnership",
  "abi": [
    {
      "inputs": [],
      "stateMutability": "nonpayable",
      "type": "constructor"
    },
    {
      "anonymous": false,
      "inputs": [
        {
          "indexed": true,
          "internalType": "address",
          "name": "owner",
          "type": "address"
        },
        {
          "indexed": true,
          "internalType": "address",
          "name": "approved",
          "type": "address"
        },
        {
          "indexed": true,
          "internalType": "uint256",
          "name": "tokenId",
          "type": "uint256"
        }
      ],
      "name": "Approval",
      "type": "event"
    },
    {
      "anonymous": false,
      "inputs": [
        {
          "indexed": true,
          "internalType": "address",
          "name": "owner",
          "type": "address"
        },
        {
          "indexed": true,
          "internalType": "address",
          "name": "operator",
          "type": "address"
        },
        {
          "indexed": false,
          "internalType": "bool",
          "name": "approved",
          "type": "bool"
        }
      ],
      "name": "ApprovalForAll",
      "type": "event"
    },
    {
      "anonymous": false,
      "inputs": [
        {
          "indexed": true,
          "internalType": "address",
          "name": "previousOwner",
          "type": "address"
        },
        {
          "indexed": true,
          "internalType": "address",
          "name": "newOwner",
          "type": "address"
        }
      ],
      "name": "OwnershipTransferred",
      "type": "event"
    },
    {
      "anonymous": false,
      "inputs": [
        {
          "indexed": true,
          "internalType": "address",
          "name": "from",
          "type": "address"
        },
        {
          "indexed": true,
          "internalType": "address",
          "name": "to",
          "type": "address"
        },
        {
          "indexed": true,
          "internalType": "uint256",
          "name": "tokenId",
          "type": "uint256"
        }
      ],
      "name": "Transfer",
      "type": "event"
    },
    {
      "inputs": [
        {
          "internalType": "address",
          "name": "to",
          "type": "address"
        },
        {
          "internalType": "uint256",
          "name": "tokenId",
          "type": "uint256"
        }
      ],
      "name": "approve",
      "outputs": [],
      "stateMutability": "nonpayable",
      "type": "function"
    },
    {
      "inputs": [
        {
          "internalType": "address",
          "name": "owner",
          "type": "address"
        }
      ],
      "name": "balanceOf",
      "outputs": [
        {
          "internalType": "uint256",
          "name": "",
          "type": "uint256"
        }
      ],
      "stateMutability": "view",
      "type": "function"
    },
    {
      "inputs": [
        {
          "internalType": "uint256",
          "name": "",
          "type": "uint256"
        }
      ],
      "name": "cooldowns",
      "outputs": [
        {
          "internalType": "uint32",
          "name": "",
          "type": "uint32"
        }
      ],
      "stateMutability": "view",
      "type": "function"
    },
    {
      "inputs": [
        {
          "internalType": "uint256",
          "name": "tokenId",
          "type": "uint256"
        }
      ],
      "name": "getApproved",
      "outputs": [
        {
          "internalType": "address",
          "name": "",
          "type": "address"
        }
      ],
      "stateMutability": "view",
      "type": "function"
    },
    {
      "inputs": [
        {
          "internalType": "address",
          "name": "owner",
          "type": "address"
        },
        {
          "internalType": "address",
          "name": "operator",
          "type": "address"
        }
      ],
      "name": "isApprovedForAll",
      "outputs": [
        {
          "internalType": "bool",
          "name": "",
          "type": "bool"
        }
      ],
      "stateMutability": "view",
      "type": "function"
    },
    {
      "inputs": [],
      "name": "name",
      "outputs": [
        {
          "internalType": "string",
          "name": "",
          "type": "string"
        }
      ],
      "stateMutability": "view",
      "type": "function"
    },
    {
      "inputs": [],
      "name": "owner",
      "outputs": [
        {
          "internalType": "address",
          "name": "",
          "type": "address"
        }
      ],
      "stateMutability": "view",
      "type": "function"
    },
    {
      "inputs": [
        {
          "internalType": "uint256",
          "name": "tokenId",
          "type": "uint256"
        }
      ],
      "name": "ownerOf",
      "outputs": [
        {
          "internalType": "address",
          "name": "",
          "type": "address"
        }
      ],
      "stateMutability": "view",
      "type": "function"
    },
    {
      "inputs": [
        {
          "internalType": "uint256",
          "name": "",
          "type": "uint256"
        }
      ],
      "name": "pets",
      "outputs": [
        {
          "internalType": "uint256",
          "name": "genes",
          "type": "uint256"
        },
        {
          "internalType": "uint8",
          "name": "color",
          "type": "uint8"
        },
        {
          "internalType": "uint8",
          "name": "size",
          "type": "uint8"
        },
        {
          "internalType": "uint8",
          "name": "pattern",
          "type": "uint8"
        },
        {
          "internalType": "uint64",
          "name": "birthTime",
          "type": "uint64"
        },
        {
          "internalType": "uint32",
          "name": "matronId",
          "type": "uint32"
        },
        {
          "internalType": "uint32",
          "name": "sireId",
          "type": "uint32"
        },
        {
          "internalType": "uint16",
          "name": "generation",
          "type": "uint16"
        },
        {
          "internalType": "uint64",
          "name": "cooldownEndBlock",
          "type": "uint64"
        }
      ],
      "stateMutability": "view",
      "type": "function"
    },
    {
      "inputs": [],
      "name": "renounceOwnership",
      "outputs": [],
      "stateMutability": "nonpayable",
      "type": "function"
    },
    {
      "inputs": [
        {
          "internalType": "address",
          "name": "from",
          "type": "address"
        },
        {
          "internalType": "address",
          "name": "to",
          "type": "address"
        },
        {
          "internalType": "uint256",
          "name": "tokenId",
          "type": "uint256"
        }
      ],
      "name": "safeTransferFrom",
      "outputs": [],
      "stateMutability": "nonpayable",
      "type": "function"
    },
    {
      "inputs": [
        {
          "internalType": "address",
          "name": "from",
          "type": "address"
        },
        {
          "internalType": "address",
          "name": "to",
          "type": "address"
        },
        {
          "internalType": "uint256",
          "name": "tokenId",
          "type": "uint256"
        },
        {
          "internalType": "bytes",
          "name": "data",
          "type": "bytes"
        }
      ],
      "name": "safeTransferFrom",
      "outputs": [],
      "stateMutability": "nonpayable",
      "type": "function"
    },
    {
      "inputs": [
        {
          "internalType": "address",
          "name": "operator",
          "type": "address"
        },
        {
          "internalType": "bool",
          "name": "approved",
          "type": "bool"
        }
      ],
      "name": "setApprovalForAll",
      "outputs": [],
      "stateMutability": "nonpayable",
      "type": "function"
    },
    {
      "inputs": [
        {
          "internalType": "bytes4",
          "name": "interfaceId",
          "type": "bytes4"
        }
      ],
      "name": "supportsInterface",
      "outputs": [
        {
          "internalType": "bool",
          "name": "",
          "type": "bool"
        }
      ],
      "stateMutability": "view",
      "type": "function"
    },
    {
      "inputs": [],
      "name": "symbol",
      "outputs": [
        {
          "internalType": "string",
          "name": "",
          "type": "string"
        }
      ],
      "stateMutability": "view",
      "type": "function"
    },
    {
      "inputs": [
        {
          "internalType": "uint256",
          "name": "index",
          "type": "uint256"
        }
      ],
      "name": "tokenByIndex",
      "outputs": [
        {
          "internalType": "uint256",
          "name": "",
          "type": "uint256"
        }
      ],
      "stateMutability": "view",
      "type": "function"
    },
    {
      "inputs": [
        {
          "internalType": "address",
          "name": "owner",
          "type": "address"
        },
        {
          "internalType": "uint256",
          "name": "index",
          "type": "uint256"
        }
      ],
      "name": "tokenOfOwnerByIndex",
      "outputs": [
        {
          "internalType": "uint256",
          "name": "",
          "type": "uint256"
        }
      ],
      "stateMutability": "view",
      "type": "function"
    },
    {
      "inputs": [
        {
          "internalType": "uint256",
          "name": "tokenId",
          "type": "uint256"
        }
      ],
      "name": "tokenURI",
      "outputs": [
        {
          "internalType": "string",
          "name": "",
          "type": "string"
        }
      ],
      "stateMutability": "view",
      "type": "function"
    },
    {
      "inputs": [],
      "name": "totalSupply",
      "outputs": [
        {
          "internalType": "uint256",
          "name": "",
          "type": "uint256"
        }
      ],
      "stateMutability": "view",
      "type": "function"
    },
    {
      "inputs": [
        {
          "internalType": "address",
          "name": "from",
          "type": "address"
        },
        {
          "internalType": "address",
          "name": "to",
          "type": "address"
        },
        {
          "internalType": "uint256",
          "name": "tokenId",
          "type": "uint256"
        }
      ],
      "name": "transferFrom",
      "outputs": [],
      "stateMutability": "nonpayable",
      "type": "function"
    },
    {
      "inputs": [
        {
          "internalType": "address",
          "name": "newOwner",
          "type": "address"
        }
      ],
      "name": "transferOwnership",
      "outputs": [],
      "stateMutability": "nonpayable",
      "type": "function"
    },
    {
      "inputs": [
        {
          "internalType": "uint256",
          "name": "_genes",
          "type": "uint256"
        }
      ],
      "name": "createPet",
      "outputs": [],
      "stateMutability": "nonpayable",
      "type": "function"
    },
    {
      "inputs": [
        {
          "internalType": "uint256",
          "name": "_matronId",
          "type": "uint256"
        },
        {
          "internalType": "uint256",
          "name": "_sireId",
          "type": "uint256"
        }
      ],
      "name": "breed",
      "outputs": [],
      "stateMutability": "nonpayable",
      "type": "function"
    },
    {
      "inputs": [
        {
          "internalType": "uint256",
          "name": "_petId",
          "type": "uint256"
        }
      ],
      "name": "getPet",
      "outputs": [
        {
          "internalType": "uint256",
          "name": "genes",
          "type": "uint256"
        },
        {
          "internalType": "uint64",
          "name": "birthTime",
          "type": "uint64"
        },
        {
          "internalType": "uint32",
          "name": "matronId",
          "type": "uint32"
        },
        {
          "internalType": "uint32",
          "name": "sireId",
          "type": "uint32"
        },
        {
          "internalType": "uint16",
          "name": "generation",
          "type": "uint16"
        },
        {
          "internalType": "uint64",
          "name": "cooldownEndBlock",
          "type": "uint64"
        }
      ],
      "stateMutability": "view",
      "type": "function"
    }
  ],
  "bytecode": "0x6080604052604051806101c00160405280607863ffffffff1663ffffffff16815260200160f063ffffffff1663ffffffff16815260200161025863ffffffff1663ffffffff1681526020016104b063ffffffff1663ffffffff168152602001610e1063ffffffff1663ffffffff168152602001611c2063ffffffff1663ffffffff16815260200161384063ffffffff1663ffffffff16815260200161708063ffffffff1663ffffffff16815260200161e10063ffffffff1663ffffffff1681526020016201c20063ffffffff1663ffffffff1681526020016202a30063ffffffff1663ffffffff1681526020016205460063ffffffff1663ffffffff168152602001620a8c0063ffffffff1663ffffffff1681526020016212750063ffffffff1663ffffffff16815250600b90600e6200013b929190620002d0565b503480156200014957600080fd5b506040518060400160405280600c81526020017f5065744f776e65727368697000000000000000000000000000000000000000008152506040518060400160405280600381526020017f50455400000000000000000000000000000000000000000000000000000000008152508160009081620001c7919062000613565b508060019081620001d9919062000613565b505050620001fc620001f06200020260201b60201c565b6200020a60201b60201c565b620006fa565b600033905090565b6000600a60009054906101000a900473ffffffffffffffffffffffffffffffffffffffff16905081600a60006101000a81548173ffffffffffffffffffffffffffffffffffffffff021916908373ffffffffffffffffffffffffffffffffffffffff1602179055508173ffffffffffffffffffffffffffffffffffffffff168173ffffffffffffffffffffffffffffffffffffffff167f8be0079c531659141344cd1fd0a4f28419497f9722a3daafe3b4186f6b6457e060405160405180910390a35050565b82600e600701600890048101928215620003675791602002820160005b838211156200033357835183826101000a81548163ffffffff021916908363ffffffff1602179055509260200192600401602081600301049283019260010302620002ed565b8015620003655782816101000a81549063ffffffff021916905560040160208160030104928301926001030262000333565b505b5090506200037691906200037a565b5090565b5b80821115620003955760008160009055506001016200037b565b5090565b600081519050919050565b7f4e487b7100000000000000000000000000000000000000000000000000000000600052604160045260246000fd5b7f4e487b7100000000000000000000000000000000000000000000000000000000600052602260045260246000fd5b600060028204905060018216806200041b57607f821691505b602082108103620004315762000430620003d3565b5b50919050565b60008190508160005260206000209050919050565b60006020601f8301049050919050565b600082821b905092915050565b6000600883026200049b7fffffffffffffffffffffffffffffffffffffffffffffffffffffffffffffffff826200045c565b620004a786836200045c565b95508019841693508086168417925050509392505050565b6000819050919050565b6000819050919050565b6000620004f4620004ee620004e884620004bf565b620004c9565b620004bf565b9050919050565b6000819050919050565b6200051083620004d3565b620005286200051f82620004fb565b84845462000469565b825550505050565b600090565b6200053f62000530565b6200054c81848462000505565b505050565b5b8181101562000574576200056860008262000535565b60018101905062000552565b5050565b601f821115620005c3576200058d8162000437565b62000598846200044c565b81016020851015620005a8578190505b620005c0620005b7856200044c565b83018262000551565b50505b505050565b600082821c905092915050565b6000620005e860001984600802620005c8565b1980831691505092915050565b6000620006038383620005d5565b9150826002028217905092915050565b6200061e8262000399565b67ffffffffffffffff8111156200063a5762000639620003a4565b5b62000646825462000402565b6200065382828562000578565b600060209050601f8311600181146200068b576000841562000676578287015190505b620006828582620005f5565b865550620006f2565b601f1984166200069b8662000437565b60005b82811015620006c5578489015182556001820191506020850194506020810190506200069e565b86831015620006e55784890151620006e1601f891682620005d5565b8355505b6001600288020188555050505b505050505050565b614572806200070a6000396000f3fe608060405234801561001057600080fd5b50600436106101585760003560e01c8063715018a6116100c3578063b88d4fde1161007c578063b88d4fde146103f0578063c87b56dd1461040c578063cfb869bf1461043c578063d9ecad7b14610474578063e985e9c514610490578063f2fde38b146104c057610158565b8063715018a61461034257806374d5762c1461034c5780638da5cb5b1461036857806395d89b41146103865780639d6fac6f146103a4578063a22cb465146103d457610158565b80632f745c59116101155780632f745c591461023157806342842e0e146102615780634f6ccce71461027d57806359d55194146102ad5780636352211e146102e257806370a082311461031257610158565b806301ffc9a71461015d57806306fdde031461018d578063081812fc146101ab578063095ea7b3146101db57806318160ddd146101f757806323b872dd14610215575b600080fd5b61017760048036038101906101729190612e9d565b6104dc565b6040516101849190612ee5565b60405180910390f35b610195610556565b6040516101a29190612f90565b60405180910390f35b6101c560048036038101906101c09190612fe8565b6105e8565b6040516101d29190613056565b60405180910390f35b6101f560048036038101906101f0919061309d565b61062e565b005b6101ff610745565b60405161020c91906130ec565b60405180910390f35b61022f600480360381019061022a9190613107565b610752565b005b61024b6004803603810190610246919061309d565b6107b2565b60405161025891906130ec565b60405180910390f35b61027b60048036038101906102769190613107565b610857565b005b61029760048036038101906102929190612fe8565b610877565b6040516102a491906130ec565b60405180910390f35b6102c760048036038101906102c29190612fe8565b6108e8565b6040516102d9969594939291906131b9565b60405180910390f35b6102fc60048036038101906102f79190612fe8565b6109a1565b6040516103099190613056565b60405180910390f35b61032c6004803603810190610327919061321a565b610a27565b60405161033991906130ec565b60405180910390f35b61034a610ade565b005b61036660048036038101906103619190612fe8565b610af2565b005b610370610d16565b60405161037d9190613056565b60405180910390f35b61038e610d40565b60405161039b9190612f90565b60405180910390f35b6103be60048036038101906103b99190612fe8565b610dd2565b6040516103cb9190613247565b60405180910390f35b6103ee60048036038101906103e9919061328e565b610e02565b005b61040a60048036038101906104059190613403565b610e18565b005b61042660048036038101906104219190612fe8565b610e7a565b6040516104339190612f90565b60405180910390f35b61045660048036038101906104519190612fe8565b610ee2565b60405161046b999897969594939291906134a2565b60405180910390f35b61048e6004803603810190610489919061352f565b610fbd565b005b6104aa60048036038101906104a5919061356f565b611477565b6040516104b79190612ee5565b60405180910390f35b6104da60048036038101906104d5919061321a565b61150b565b005b60007f780e9d63000000000000000000000000000000000000000000000000000000007bffffffffffffffffffffffffffffffffffffffffffffffffffffffff1916827bffffffffffffffffffffffffffffffffffffffffffffffffffffffff1916148061054f575061054e8261158e565b5b9050919050565b606060008054610565906135de565b80601f0160208091040260200160405190810160405280929190818152602001828054610591906135de565b80156105de5780601f106105b3576101008083540402835291602001916105de565b820191906000526020600020905b8154815290600101906020018083116105c157829003601f168201915b5050505050905090565b60006105f382611670565b6004600083815260200190815260200160002060009054906101000a900473ffffffffffffffffffffffffffffffffffffffff169050919050565b6000610639826109a1565b90508073ffffffffffffffffffffffffffffffffffffffff168373ffffffffffffffffffffffffffffffffffffffff16036106a9576040517f08c379a00000000000000000000000000000000000000000000000000000000081526004016106a090613681565b60405180910390fd5b8073ffffffffffffffffffffffffffffffffffffffff166106c86116bb565b73ffffffffffffffffffffffffffffffffffffffff1614806106f757506106f6816106f16116bb565b611477565b5b610736576040517f08c379a000000000000000000000000000000000000000000000000000000000815260040161072d90613713565b60405180910390fd5b61074083836116c3565b505050565b6000600880549050905090565b61076361075d6116bb565b8261177c565b6107a2576040517f08c379a0000000000000000000000000000000000000000000000000000000008152600401610799906137a5565b60405180910390fd5b6107ad838383611811565b505050565b60006107bd83610a27565b82106107fe576040517f08c379a00000000000000000000000000000000000000000000000000000000081526004016107f590613837565b60405180910390fd5b600660008473ffffffffffffffffffffffffffffffffffffffff1673ffffffffffffffffffffffffffffffffffffffff168152602001908152602001600020600083815260200190815260200160002054905092915050565b61087283838360405180602001604052806000815250610e18565b505050565b6000610881610745565b82106108c2576040517f08c379a00000000000000000000000000000000000000000000000000000000081526004016108b9906138c9565b60405180910390fd5b600882815481106108d6576108d56138e9565b5b90600052602060002001549050919050565b6000806000806000806000600d8881548110610907576109066138e9565b5b90600052602060002090600202019050806000015496508060010160039054906101000a900467ffffffffffffffff16955080600101600b9054906101000a900463ffffffff16945080600101600f9054906101000a900463ffffffff1693508060010160139054906101000a900461ffff1692508060010160159054906101000a900467ffffffffffffffff1691505091939550919395565b6000806109ad83611b0a565b9050600073ffffffffffffffffffffffffffffffffffffffff168173ffffffffffffffffffffffffffffffffffffffff1603610a1e576040517f08c379a0000000000000000000000000000000000000000000000000000000008152600401610a1590613964565b60405180910390fd5b80915050919050565b60008073ffffffffffffffffffffffffffffffffffffffff168273ffffffffffffffffffffffffffffffffffffffff1603610a97576040517f08c379a0000000000000000000000000000000000000000000000000000000008152600401610a8e906139f6565b60405180910390fd5b600360008373ffffffffffffffffffffffffffffffffffffffff1673ffffffffffffffffffffffffffffffffffffffff168152602001908152602001600020549050919050565b610ae6611b47565b610af06000611bc5565b565b610afa611b47565b6000600d805490509050600060ff83169050600060ff600885901c169050600060ff601086901c16905060006040518061012001604052808781526020018560ff1681526020018460ff1681526020018360ff1681526020014267ffffffffffffffff168152602001600063ffffffff168152602001600063ffffffff168152602001600061ffff168152602001600067ffffffffffffffff168152509050600d8190806001815401808255809150506001900390600052602060002090600202016000909190919091506000820151816000015560208201518160010160006101000a81548160ff021916908360ff16021790555060408201518160010160016101000a81548160ff021916908360ff16021790555060608201518160010160026101000a81548160ff021916908360ff16021790555060808201518160010160036101000a81548167ffffffffffffffff021916908367ffffffffffffffff16021790555060a082015181600101600b6101000a81548163ffffffff021916908363ffffffff16021790555060c082015181600101600f6101000a81548163ffffffff021916908363ffffffff16021790555060e08201518160010160136101000a81548161ffff021916908361ffff1602179055506101008201518160010160156101000a81548167ffffffffffffffff021916908367ffffffffffffffff1602179055505050610d0e3386611c8b565b505050505050565b6000600a60009054906101000a900473ffffffffffffffffffffffffffffffffffffffff16905090565b606060018054610d4f906135de565b80601f0160208091040260200160405190810160405280929190818152602001828054610d7b906135de565b8015610dc85780601f10610d9d57610100808354040283529160200191610dc8565b820191906000526020600020905b815481529060010190602001808311610dab57829003601f168201915b5050505050905090565b600b81600e8110610de257600080fd5b60089182820401919006600402915054906101000a900463ffffffff1681565b610e14610e0d6116bb565b8383611ea8565b5050565b610e29610e236116bb565b8361177c565b610e68576040517f08c379a0000000000000000000000000000000000000000000000000000000008152600401610e5f906137a5565b60405180910390fd5b610e7484848484612014565b50505050565b6060610e8582611670565b6000610e8f612070565b90506000815111610eaf5760405180602001604052806000815250610eda565b80610eb984612087565b604051602001610eca929190613a52565b6040516020818303038152906040525b915050919050565b600d8181548110610ef257600080fd5b90600052602060002090600202016000915090508060000154908060010160009054906101000a900460ff16908060010160019054906101000a900460ff16908060010160029054906101000a900460ff16908060010160039054906101000a900467ffffffffffffffff169080600101600b9054906101000a900463ffffffff169080600101600f9054906101000a900463ffffffff16908060010160139054906101000a900461ffff16908060010160159054906101000a900467ffffffffffffffff16905089565b610fc73383612155565b611006576040517f08c379a0000000000000000000000000000000000000000000000000000000008152600401610ffd90613ae8565b60405180910390fd5b6110103382612155565b61104f576040517f08c379a000000000000000000000000000000000000000000000000000000000815260040161104690613b54565b60405180910390fd5b6000600d8381548110611065576110646138e9565b5b906000526020600020906002020190506000600d838154811061108b5761108a6138e9565b5b906000526020600020906002020190508173__PetBase_______________________________63d0c1ae1190916040518263ffffffff1660e01b81526004016110d49190613b7b565b602060405180830381865af41580156110f1573d6000803e3d6000fd5b505050506040513d601f19601f820116820180604052508101906111159190613bab565b611154576040517f08c379a000000000000000000000000000000000000000000000000000000000815260040161114b90613c24565b60405180910390fd5b8073__PetBase_______________________________63d0c1ae1190916040518263ffffffff1660e01b815260040161118d9190613b7b565b602060405180830381865af41580156111aa573d6000803e3d6000fd5b505050506040513d601f19601f820116820180604052508101906111ce9190613bab565b61120d576040517f08c379a000000000000000000000000000000000000000000000000000000000815260040161120490613c90565b60405180910390fd5b8173__PetBase_______________________________63ee2425659091836040518363ffffffff1660e01b8152600401611248929190613cb0565b602060405180830381865af4158015611265573d6000803e3d6000fd5b505050506040513d601f19601f820116820180604052508101906112899190613bab565b6112c8576040517f08c379a00000000000000000000000000000000000000000000000000000000081526004016112bf90613d4b565b60405180910390fd5b6000600d80549050905060006112dc612196565b905060006112f78484848861226a909392919063ffffffff16565b9050600d8190806001815401808255809150506001900390600052602060002090600202016000909190919091506000820151816000015560208201518160010160006101000a81548160ff021916908360ff16021790555060408201518160010160016101000a81548160ff021916908360ff16021790555060608201518160010160026101000a81548160ff021916908360ff16021790555060808201518160010160036101000a81548167ffffffffffffffff021916908367ffffffffffffffff16021790555060a082015181600101600b6101000a81548163ffffffff021916908363ffffffff16021790555060c082015181600101600f6101000a81548163ffffffff021916908363ffffffff16021790555060e08201518160010160136101000a81548161ffff021916908361ffff1602179055506101008201518160010160156101000a81548167ffffffffffffffff021916908367ffffffffffffffff160217905550505061146e3384611c8b565b50505050505050565b6000600560008473ffffffffffffffffffffffffffffffffffffffff1673ffffffffffffffffffffffffffffffffffffffff16815260200190815260200160002060008373ffffffffffffffffffffffffffffffffffffffff1673ffffffffffffffffffffffffffffffffffffffff16815260200190815260200160002060009054906101000a900460ff16905092915050565b611513611b47565b600073ffffffffffffffffffffffffffffffffffffffff168173ffffffffffffffffffffffffffffffffffffffff1603611582576040517f08c379a000000000000000000000000000000000000000000000000000000000815260040161157990613ddd565b60405180910390fd5b61158b81611bc5565b50565b60007f80ac58cd000000000000000000000000000000000000000000000000000000007bffffffffffffffffffffffffffffffffffffffffffffffffffffffff1916827bffffffffffffffffffffffffffffffffffffffffffffffffffffffff1916148061165957507f5b5e139f000000000000000000000000000000000000000000000000000000007bffffffffffffffffffffffffffffffffffffffffffffffffffffffff1916827bffffffffffffffffffffffffffffffffffffffffffffffffffffffff1916145b806116695750611668826123f3565b5b9050919050565b6116798161245d565b6116b8576040517f08c379a00000000000000000000000000000000000000000000000000000000081526004016116af90613964565b60405180910390fd5b50565b600033905090565b816004600083815260200190815260200160002060006101000a81548173ffffffffffffffffffffffffffffffffffffffff021916908373ffffffffffffffffffffffffffffffffffffffff160217905550808273ffffffffffffffffffffffffffffffffffffffff16611736836109a1565b73ffffffffffffffffffffffffffffffffffffffff167f8c5be1e5ebec7d5bd14f71427d1e84f3dd0314c0f7b2291e5b200ac8c7c3b92560405160405180910390a45050565b600080611788836109a1565b90508073ffffffffffffffffffffffffffffffffffffffff168473ffffffffffffffffffffffffffffffffffffffff1614806117ca57506117c98185611477565b5b8061180857508373ffffffffffffffffffffffffffffffffffffffff166117f0846105e8565b73ffffffffffffffffffffffffffffffffffffffff16145b91505092915050565b8273ffffffffffffffffffffffffffffffffffffffff16611831826109a1565b73ffffffffffffffffffffffffffffffffffffffff1614611887576040517f08c379a000000000000000000000000000000000000000000000000000000000815260040161187e90613e6f565b60405180910390fd5b600073ffffffffffffffffffffffffffffffffffffffff168273ffffffffffffffffffffffffffffffffffffffff16036118f6576040517f08c379a00000000000000000000000000000000000000000000000000000000081526004016118ed90613f01565b60405180910390fd5b611903838383600161249e565b8273ffffffffffffffffffffffffffffffffffffffff16611923826109a1565b73ffffffffffffffffffffffffffffffffffffffff1614611979576040517f08c379a000000000000000000000000000000000000000000000000000000000815260040161197090613e6f565b60405180910390fd5b6004600082815260200190815260200160002060006101000a81549073ffffffffffffffffffffffffffffffffffffffff02191690556001600360008573ffffffffffffffffffffffffffffffffffffffff1673ffffffffffffffffffffffffffffffffffffffff168152602001908152602001600020600082825403925050819055506001600360008473ffffffffffffffffffffffffffffffffffffffff1673ffffffffffffffffffffffffffffffffffffffff16815260200190815260200160002060008282540192505081905550816002600083815260200190815260200160002060006101000a81548173ffffffffffffffffffffffffffffffffffffffff021916908373ffffffffffffffffffffffffffffffffffffffff160217905550808273ffffffffffffffffffffffffffffffffffffffff168473ffffffffffffffffffffffffffffffffffffffff167fddf252ad1be2c89b69c2b068fc378daa952ba7f163c4a11628f55a4df523b3ef60405160405180910390a4611b0583838360016125fc565b505050565b60006002600083815260200190815260200160002060009054906101000a900473ffffffffffffffffffffffffffffffffffffffff169050919050565b611b4f6116bb565b73ffffffffffffffffffffffffffffffffffffffff16611b6d610d16565b73ffffffffffffffffffffffffffffffffffffffff1614611bc3576040517f08c379a0000000000000000000000000000000000000000000000000000000008152600401611bba90613f6d565b60405180910390fd5b565b6000600a60009054906101000a900473ffffffffffffffffffffffffffffffffffffffff16905081600a60006101000a81548173ffffffffffffffffffffffffffffffffffffffff021916908373ffffffffffffffffffffffffffffffffffffffff1602179055508173ffffffffffffffffffffffffffffffffffffffff168173ffffffffffffffffffffffffffffffffffffffff167f8be0079c531659141344cd1fd0a4f28419497f9722a3daafe3b4186f6b6457e060405160405180910390a35050565b600073ffffffffffffffffffffffffffffffffffffffff168273ffffffffffffffffffffffffffffffffffffffff1603611cfa576040517f08c379a0000000000000000000000000000000000000000000000000000000008152600401611cf190613fd9565b60405180910390fd5b611d038161245d565b15611d43576040517f08c379a0000000000000000000000000000000000000000000000000000000008152600401611d3a90614045565b60405180910390fd5b611d5160008383600161249e565b611d5a8161245d565b15611d9a576040517f08c379a0000000000000000000000000000000000000000000000000000000008152600401611d9190614045565b60405180910390fd5b6001600360008473ffffffffffffffffffffffffffffffffffffffff1673ffffffffffffffffffffffffffffffffffffffff16815260200190815260200160002060008282540192505081905550816002600083815260200190815260200160002060006101000a81548173ffffffffffffffffffffffffffffffffffffffff021916908373ffffffffffffffffffffffffffffffffffffffff160217905550808273ffffffffffffffffffffffffffffffffffffffff16600073ffffffffffffffffffffffffffffffffffffffff167fddf252ad1be2c89b69c2b068fc378daa952ba7f163c4a11628f55a4df523b3ef60405160405180910390a4611ea46000838360016125fc565b5050565b8173ffffffffffffffffffffffffffffffffffffffff168373ffffffffffffffffffffffffffffffffffffffff1603611f16576040517f08c379a0000000000000000000000000000000000000000000000000000000008152600401611f0d906140b1565b60405180910390fd5b80600560008573ffffffffffffffffffffffffffffffffffffffff1673ffffffffffffffffffffffffffffffffffffffff16815260200190815260200160002060008473ffffffffffffffffffffffffffffffffffffffff1673ffffffffffffffffffffffffffffffffffffffff16815260200190815260200160002060006101000a81548160ff0219169083151502179055508173ffffffffffffffffffffffffffffffffffffffff168373ffffffffffffffffffffffffffffffffffffffff167f17307eab39ab6107e8899845ad3d59bd9653f200f220920489ca2b5937696c31836040516120079190612ee5565b60405180910390a3505050565b61201f848484611811565b61202b84848484612602565b61206a576040517f08c379a000000000000000000000000000000000000000000000000000000000815260040161206190614143565b60405180910390fd5b50505050565b606060405180602001604052806000815250905090565b60606000600161209684612789565b01905060008167ffffffffffffffff8111156120b5576120b46132d8565b5b6040519080825280601f01601f1916602001820160405280156120e75781602001600182028036833780820191505090505b509050600082602001820190505b60011561214a578080600190039150507f3031323334353637383961626364656600000000000000000000000000000000600a86061a8153600a858161213e5761213d614163565b5b049450600085036120f5575b819350505050919050565b60008273ffffffffffffffffffffffffffffffffffffffff16612177836109a1565b73ffffffffffffffffffffffffffffffffffffffff1614905092915050565b60606000600e67ffffffffffffffff8111156121b5576121b46132d8565b5b6040519080825280602002602001820160405280156121e35781602001602082028036833780820191505090505b50905060005b600e81101561226257600b81600e8110612206576122056138e9565b5b600891828204019190066004029054906101000a900463ffffffff16828281518110612235576122346138e9565b5b602002602001019063ffffffff16908163ffffffff1681525050808061225a906141c1565b9150506121e9565b508091505090565b612272612db8565b60008560010160139054906101000a900461ffff1690508560010160139054906101000a900461ffff1661ffff168560010160139054906101000a900461ffff1661ffff1611156122d3578460010160139054906101000a900461ffff1690505b60006122df87876128dc565b9050600060ff82169050600060ff600884901c169050600060ff601085901c16905060006040518061012001604052808681526020018560ff1681526020018460ff1681526020018360ff1681526020014267ffffffffffffffff1681526020018c600101600b9054906101000a900463ffffffff1663ffffffff1681526020018b600101600f9054906101000a900463ffffffff1663ffffffff16815260200160018861238d9190614209565b61ffff168152602001600067ffffffffffffffff1681525090506123b181896129c8565b63ffffffff16436123c2919061423f565b81610100019067ffffffffffffffff16908167ffffffffffffffff1681525050809650505050505050949350505050565b60007f01ffc9a7000000000000000000000000000000000000000000000000000000007bffffffffffffffffffffffffffffffffffffffffffffffffffffffff1916827bffffffffffffffffffffffffffffffffffffffffffffffffffffffff1916149050919050565b60008073ffffffffffffffffffffffffffffffffffffffff1661247f83611b0a565b73ffffffffffffffffffffffffffffffffffffffff1614159050919050565b6124aa84848484612a20565b60018111156124ee576040517f08c379a00000000000000000000000000000000000000000000000000000000081526004016124e5906142e5565b60405180910390fd5b6000829050600073ffffffffffffffffffffffffffffffffffffffff168573ffffffffffffffffffffffffffffffffffffffff16036125355761253081612a26565b612574565b8373ffffffffffffffffffffffffffffffffffffffff168573ffffffffffffffffffffffffffffffffffffffff1614612573576125728582612a6f565b5b5b600073ffffffffffffffffffffffffffffffffffffffff168473ffffffffffffffffffffffffffffffffffffffff16036125b6576125b181612bdc565b6125f5565b8473ffffffffffffffffffffffffffffffffffffffff168473ffffffffffffffffffffffffffffffffffffffff16146125f4576125f38482612cad565b5b5b5050505050565b50505050565b60006126238473ffffffffffffffffffffffffffffffffffffffff16612d2c565b1561277c578373ffffffffffffffffffffffffffffffffffffffff1663150b7a0261264c6116bb565b8786866040518563ffffffff1660e01b815260040161266e949392919061435a565b6020604051808303816000875af19250505080156126aa57506040513d601f19601f820116820180604052508101906126a791906143bb565b60015b61272c573d80600081146126da576040519150601f19603f3d011682016040523d82523d6000602084013e6126df565b606091505b506000815103612724576040517f08c379a000000000000000000000000000000000000000000000000000000000815260040161271b90614143565b60405180910390fd5b805181602001fd5b63150b7a0260e01b7bffffffffffffffffffffffffffffffffffffffffffffffffffffffff1916817bffffffffffffffffffffffffffffffffffffffffffffffffffffffff191614915050612781565b600190505b949350505050565b600080600090507a184f03e93ff9f4daa797ed6e38ed64bf6a1f01000000000000000083106127e7577a184f03e93ff9f4daa797ed6e38ed64bf6a1f01000000000000000083816127dd576127dc614163565b5b0492506040810190505b6d04ee2d6d415b85acef81000000008310612824576d04ee2d6d415b85acef8100000000838161281a57612819614163565b5b0492506020810190505b662386f26fc10000831061285357662386f26fc10000838161284957612848614163565b5b0492506010810190505b6305f5e100831061287c576305f5e100838161287257612871614163565b5b0492506008810190505b61271083106128a157612710838161289757612896614163565b5b0492506004810190505b606483106128c457606483816128ba576128b9614163565b5b0492506002810190505b600a83106128d3576001810190505b80915050919050565b60008060ff8460000154169050600060ff8460000154169050600060ff60088760000154901c169050600060ff60088760000154901c169050600060ff60108960000154901c169050600060ff60108960000154901c16905060006129418787612d4f565b9050600061294f8686612d4f565b9050600061295d8585612d4f565b90506000601082901b600884901b8517179050600062ffffff8e600001548e600001544260405160200161299393929190614409565b6040516020818303038152906040528051906020012060001c1690508082189150819b50505050505050505050505092915050565b60008060028460e001516129dc9190614446565b61ffff169050600d8163ffffffff1611156129f657600d90505b828163ffffffff1681518110612a0f57612a0e6138e9565b5b602002602001015191505092915050565b50505050565b6008805490506009600083815260200190815260200160002081905550600881908060018154018082558091505060019003906000526020600020016000909190919091505550565b60006001612a7c84610a27565b612a869190614477565b9050600060076000848152602001908152602001600020549050818114612b6b576000600660008673ffffffffffffffffffffffffffffffffffffffff1673ffffffffffffffffffffffffffffffffffffffff168152602001908152602001600020600084815260200190815260200160002054905080600660008773ffffffffffffffffffffffffffffffffffffffff1673ffffffffffffffffffffffffffffffffffffffff168152602001908152602001600020600084815260200190815260200160002081905550816007600083815260200190815260200160002081905550505b6007600084815260200190815260200160002060009055600660008573ffffffffffffffffffffffffffffffffffffffff1673ffffffffffffffffffffffffffffffffffffffff16815260200190815260200160002060008381526020019081526020016000206000905550505050565b60006001600880549050612bf09190614477565b9050600060096000848152602001908152602001600020549050600060088381548110612c2057612c1f6138e9565b5b906000526020600020015490508060088381548110612c4257612c416138e9565b5b906000526020600020018190555081600960008381526020019081526020016000208190555060096000858152602001908152602001600020600090556008805480612c9157612c906144ab565b5b6001900381819060005260206000200160009055905550505050565b6000612cb883610a27565b905081600660008573ffffffffffffffffffffffffffffffffffffffff1673ffffffffffffffffffffffffffffffffffffffff168152602001908152602001600020600083815260200190815260200160002081905550806007600084815260200190815260200160002081905550505050565b6000808273ffffffffffffffffffffffffffffffffffffffff163b119050919050565b60008060028385612d60919061423f565b612d6a91906144da565b905082841115612d9357600284612d81919061450b565b81612d8c919061423f565b9050612dae565b600283612da0919061450b565b81612dab919061423f565b90505b8091505092915050565b60405180610120016040528060008152602001600060ff168152602001600060ff168152602001600060ff168152602001600067ffffffffffffffff168152602001600063ffffffff168152602001600063ffffffff168152602001600061ffff168152602001600067ffffffffffffffff1681525090565b6000604051905090565b600080fd5b600080fd5b60007fffffffff0000000000000000000000000000000000000000000000000000000082169050919050565b612e7a81612e45565b8114612e8557600080fd5b50565b600081359050612e9781612e71565b92915050565b600060208284031215612eb357612eb2612e3b565b5b6000612ec184828501612e88565b91505092915050565b60008115159050919050565b612edf81612eca565b82525050565b6000602082019050612efa6000830184612ed6565b92915050565b600081519050919050565b600082825260208201905092915050565b60005b83811015612f3a578082015181840152602081019050612f1f565b60008484015250505050565b6000601f19601f8301169050919050565b6000612f6282612f00565b612f6c8185612f0b565b9350612f7c818560208601612f1c565b612f8581612f46565b840191505092915050565b60006020820190508181036000830152612faa8184612f57565b905092915050565b6000819050919050565b612fc581612fb2565b8114612fd057600080fd5b50565b600081359050612fe281612fbc565b92915050565b600060208284031215612ffe57612ffd612e3b565b5b600061300c84828501612fd3565b91505092915050565b600073ffffffffffffffffffffffffffffffffffffffff82169050919050565b600061304082613015565b9050919050565b61305081613035565b82525050565b600060208201905061306b6000830184613047565b92915050565b61307a81613035565b811461308557600080fd5b50565b60008135905061309781613071565b92915050565b600080604083850312156130b4576130b3612e3b565b5b60006130c285828601613088565b92505060206130d385828601612fd3565b9150509250929050565b6130e681612fb2565b82525050565b600060208201905061310160008301846130dd565b92915050565b6000806000606084860312156131205761311f612e3b565b5b600061312e86828701613088565b935050602061313f86828701613088565b925050604061315086828701612fd3565b9150509250925092565b600067ffffffffffffffff82169050919050565b6131778161315a565b82525050565b600063ffffffff82169050919050565b6131968161317d565b82525050565b600061ffff82169050919050565b6131b38161319c565b82525050565b600060c0820190506131ce60008301896130dd565b6131db602083018861316e565b6131e8604083018761318d565b6131f5606083018661318d565b61320260808301856131aa565b61320f60a083018461316e565b979650505050505050565b6000602082840312156132305761322f612e3b565b5b600061323e84828501613088565b91505092915050565b600060208201905061325c600083018461318d565b92915050565b61326b81612eca565b811461327657600080fd5b50565b60008135905061328881613262565b92915050565b600080604083850312156132a5576132a4612e3b565b5b60006132b385828601613088565b92505060206132c485828601613279565b9150509250929050565b600080fd5b600080fd5b7f4e487b7100000000000000000000000000000000000000000000000000000000600052604160045260246000fd5b61331082612f46565b810181811067ffffffffffffffff8211171561332f5761332e6132d8565b5b80604052505050565b6000613342612e31565b905061334e8282613307565b919050565b600067ffffffffffffffff82111561336e5761336d6132d8565b5b61337782612f46565b9050602081019050919050565b82818337600083830152505050565b60006133a66133a184613353565b613338565b9050828152602081018484840111156133c2576133c16132d3565b5b6133cd848285613384565b509392505050565b600082601f8301126133ea576133e96132ce565b5b81356133fa848260208601613393565b91505092915050565b6000806000806080858703121561341d5761341c612e3b565b5b600061342b87828801613088565b945050602061343c87828801613088565b935050604061344d87828801612fd3565b925050606085013567ffffffffffffffff81111561346e5761346d612e40565b5b61347a878288016133d5565b91505092959194509250565b600060ff82169050919050565b61349c81613486565b82525050565b6000610120820190506134b8600083018c6130dd565b6134c5602083018b613493565b6134d2604083018a613493565b6134df6060830189613493565b6134ec608083018861316e565b6134f960a083018761318d565b61350660c083018661318d565b61351360e08301856131aa565b61352161010083018461316e565b9a9950505050505050505050565b6000806040838503121561354657613545612e3b565b5b600061355485828601612fd3565b925050602061356585828601612fd3565b9150509250929050565b6000806040838503121561358657613585612e3b565b5b600061359485828601613088565b92505060206135a585828601613088565b9150509250929050565b7f4e487b7100000000000000000000000000000000000000000000000000000000600052602260045260246000fd5b600060028204905060018216806135f657607f821691505b602082108103613609576136086135af565b5b50919050565b7f4552433732313a20617070726f76616c20746f2063757272656e74206f776e6560008201527f7200000000000000000000000000000000000000000000000000000000000000602082015250565b600061366b602183612f0b565b91506136768261360f565b604082019050919050565b6000602082019050818103600083015261369a8161365e565b9050919050565b7f4552433732313a20617070726f76652063616c6c6572206973206e6f7420746f60008201527f6b656e206f776e6572206f7220617070726f76656420666f7220616c6c000000602082015250565b60006136fd603d83612f0b565b9150613708826136a1565b604082019050919050565b6000602082019050818103600083015261372c816136f0565b9050919050565b7f4552433732313a2063616c6c6572206973206e6f7420746f6b656e206f776e6560008201527f72206f7220617070726f76656400000000000000000000000000000000000000602082015250565b600061378f602d83612f0b565b915061379a82613733565b604082019050919050565b600060208201905081810360008301526137be81613782565b9050919050565b7f455243373231456e756d657261626c653a206f776e657220696e646578206f7560008201527f74206f6620626f756e6473000000000000000000000000000000000000000000602082015250565b6000613821602b83612f0b565b915061382c826137c5565b604082019050919050565b6000602082019050818103600083015261385081613814565b9050919050565b7f455243373231456e756d657261626c653a20676c6f62616c20696e646578206f60008201527f7574206f6620626f756e64730000000000000000000000000000000000000000602082015250565b60006138b3602c83612f0b565b91506138be82613857565b604082019050919050565b600060208201905081810360008301526138e2816138a6565b9050919050565b7f4e487b7100000000000000000000000000000000000000000000000000000000600052603260045260246000fd5b7f4552433732313a20696e76616c696420746f6b656e2049440000000000000000600082015250565b600061394e601883612f0b565b915061395982613918565b602082019050919050565b6000602082019050818103600083015261397d81613941565b9050919050565b7f4552433732313a2061646472657373207a65726f206973206e6f74206120766160008201527f6c6964206f776e65720000000000000000000000000000000000000000000000602082015250565b60006139e0602983612f0b565b91506139eb82613984565b604082019050919050565b60006020820190508181036000830152613a0f816139d3565b9050919050565b600081905092915050565b6000613a2c82612f00565b613a368185613a16565b9350613a46818560208601612f1c565b80840191505092915050565b6000613a5e8285613a21565b9150613a6a8284613a21565b91508190509392505050565b7f43616c6c657220646f6573206e6f74206f776e20746865206d6174726f6e207060008201527f6574000000000000000000000000000000000000000000000000000000000000602082015250565b6000613ad2602283612f0b565b9150613add82613a76565b604082019050919050565b60006020820190508181036000830152613b0181613ac5565b9050919050565b7f43616c6c657220646f6573206e6f74206f776e20746865207369726520706574600082015250565b6000613b3e602083612f0b565b9150613b4982613b08565b602082019050919050565b60006020820190508181036000830152613b6d81613b31565b9050919050565b8082525050565b6000602082019050613b906000830184613b74565b92915050565b600081519050613ba581613262565b92915050565b600060208284031215613bc157613bc0612e3b565b5b6000613bcf84828501613b96565b91505092915050565b7f4d6174726f6e20706574206973206e6f7420726561647920746f206272656564600082015250565b6000613c0e602083612f0b565b9150613c1982613bd8565b602082019050919050565b60006020820190508181036000830152613c3d81613c01565b9050919050565b7f5369726520706574206973206e6f7420726561647920746f2062726565640000600082015250565b6000613c7a601e83612f0b565b9150613c8582613c44565b602082019050919050565b60006020820190508181036000830152613ca981613c6d565b9050919050565b6000604082019050613cc56000830185613b74565b613cd26020830184613b74565b9392505050565b7f506574732063616e6e6f7420627265656420776974682065616368206f74686560008201527f7200000000000000000000000000000000000000000000000000000000000000602082015250565b6000613d35602183612f0b565b9150613d4082613cd9565b604082019050919050565b60006020820190508181036000830152613d6481613d28565b9050919050565b7f4f776e61626c653a206e6577206f776e657220697320746865207a65726f206160008201527f6464726573730000000000000000000000000000000000000000000000000000602082015250565b6000613dc7602683612f0b565b9150613dd282613d6b565b604082019050919050565b60006020820190508181036000830152613df681613dba565b9050919050565b7f4552433732313a207472616e736665722066726f6d20696e636f72726563742060008201527f6f776e6572000000000000000000000000000000000000000000000000000000602082015250565b6000613e59602583612f0b565b9150613e6482613dfd565b604082019050919050565b60006020820190508181036000830152613e8881613e4c565b9050919050565b7f4552433732313a207472616e7366657220746f20746865207a65726f2061646460008201527f7265737300000000000000000000000000000000000000000000000000000000602082015250565b6000613eeb602483612f0b565b9150613ef682613e8f565b604082019050919050565b60006020820190508181036000830152613f1a81613ede565b9050919050565b7f4f776e61626c653a2063616c6c6572206973206e6f7420746865206f776e6572600082015250565b6000613f57602083612f0b565b9150613f6282613f21565b602082019050919050565b60006020820190508181036000830152613f8681613f4a565b9050919050565b7f4552433732313a206d696e7420746f20746865207a65726f2061646472657373600082015250565b6000613fc3602083612f0b565b9150613fce82613f8d565b602082019050919050565b60006020820190508181036000830152613ff281613fb6565b9050919050565b7f4552433732313a20746f6b656e20616c7265616479206d696e74656400000000600082015250565b600061402f601c83612f0b565b915061403a82613ff9565b602082019050919050565b6000602082019050818103600083015261405e81614022565b9050919050565b7f4552433732313a20617070726f766520746f2063616c6c657200000000000000600082015250565b600061409b601983612f0b565b91506140a682614065565b602082019050919050565b600060208201905081810360008301526140ca8161408e565b9050919050565b7f4552433732313a207472616e7366657220746f206e6f6e20455243373231526560008201527f63656976657220696d706c656d656e7465720000000000000000000000000000602082015250565b600061412d603283612f0b565b9150614138826140d1565b604082019050919050565b6000602082019050818103600083015261415c81614120565b9050919050565b7f4e487b7100000000000000000000000000000000000000000000000000000000600052601260045260246000fd5b7f4e487b7100000000000000000000000000000000000000000000000000000000600052601160045260246000fd5b60006141cc82612fb2565b91507fffffffffffffffffffffffffffffffffffffffffffffffffffffffffffffffff82036141fe576141fd614192565b5b600182019050919050565b60006142148261319c565b915061421f8361319c565b9250828201905061ffff81111561423957614238614192565b5b92915050565b600061424a82612fb2565b915061425583612fb2565b925082820190508082111561426d5761426c614192565b5b92915050565b7f455243373231456e756d657261626c653a20636f6e736563757469766520747260008201527f616e7366657273206e6f7420737570706f727465640000000000000000000000602082015250565b60006142cf603583612f0b565b91506142da82614273565b604082019050919050565b600060208201905081810360008301526142fe816142c2565b9050919050565b600081519050919050565b600082825260208201905092915050565b600061432c82614305565b6143368185614310565b9350614346818560208601612f1c565b61434f81612f46565b840191505092915050565b600060808201905061436f6000830187613047565b61437c6020830186613047565b61438960408301856130dd565b818103606083015261439b8184614321565b905095945050505050565b6000815190506143b581612e71565b92915050565b6000602082840312156143d1576143d0612e3b565b5b60006143df848285016143a6565b91505092915050565b6000819050919050565b6144036143fe82612fb2565b6143e8565b82525050565b600061441582866143f2565b60208201915061442582856143f2565b60208201915061443582846143f2565b602082019150819050949350505050565b60006144518261319c565b915061445c8361319c565b92508261446c5761446b614163565b5b828204905092915050565b600061448282612fb2565b915061448d83612fb2565b92508282039050818111156144a5576144a4614192565b5b92915050565b7f4e487b7100000000000000000000000000000000000000000000000000000000600052603160045260246000fd5b60006144e582612fb2565b91506144f083612fb2565b925082614500576144ff614163565b5b828204905092915050565b600061451682612fb2565b915061452183612fb2565b92508261453157614530614163565b5b82820690509291505056fea264697066735822122042f002f77764b11e33fc3e481bea61fc8d9c7390ca0261fb2f05b14029e20bd764736f6c63430008130033",
  "immutableReferences": {},
  "source": "// SPDX-License-Identifier: MIT\r\npragma solidity ^0.8.0;\r\n\r\nimport \"@openzeppelin/contracts/token/ERC721/extensions/ERC721Enumerable.sol\";\r\nimport \"@openzeppelin/contracts/access/Ownable.sol\";\r\nimport \"./PetBase.sol\";\r\nimport \"./Cooldowns.sol\";\r\n\r\ncontract PetOwnership is ERC721Enumerable, Ownable, Cooldowns {\r\n    using PetBase for PetBase.Pet;\r\n\r\n    PetBase.Pet[] public pets;\r\n\r\n    constructor() ERC721(\"PetOwnership\", \"PET\") {}\r\n\r\n    function createPet(uint256 _genes) external onlyOwner {\r\n        uint256 newPetId = pets.length;\r\n        uint8 color = uint8(_genes & 0xFF);\r\n        uint8 size = uint8((_genes >> 8) & 0xFF);\r\n        uint8 pattern = uint8((_genes >> 16) & 0xFF);\r\n\r\n        PetBase.Pet memory _newPet = PetBase.Pet({\r\n            genes: _genes,\r\n            color: color,\r\n            size: size,\r\n            pattern: pattern,\r\n            birthTime: uint64(block.timestamp),\r\n            matronId: 0,\r\n            sireId: 0,\r\n            generation: 0,\r\n            cooldownEndBlock: 0\r\n        });\r\n\r\n        pets.push(_newPet);\r\n        _mint(msg.sender, newPetId);\r\n    }\r\n\r\n\r\n    function breed(uint256 _matronId, uint256 _sireId) public {\r\n        require(_owns(msg.sender, _matronId), \"Caller does not own the matron pet\");\r\n        require(_owns(msg.sender, _sireId), \"Caller does not own the sire pet\");\r\n\r\n        PetBase.Pet storage matron = pets[_matronId];\r\n        PetBase.Pet storage sire = pets[_sireId];\r\n\r\n        require(matron.isReadyToBreed(), \"Matron pet is not ready to breed\");\r\n        require(sire.isReadyToBreed(), \"Sire pet is not ready to breed\");\r\n        require(matron.canBreedWith(sire), \"Pets cannot breed with each other\");\r\n\r\n        uint256 newPetId = pets.length;\r\n        uint32[] memory _cooldowns = _getCooldowns();\r\n        PetBase.Pet memory newPet = matron.giveBirth(sire, newPetId, _cooldowns);\r\n        pets.push(newPet);\r\n\r\n        _mint(msg.sender, newPetId);\r\n    }\r\n\r\n    function getPet(uint256 _petId) public view returns (\r\n        uint256 genes,\r\n        uint64 birthTime,\r\n        uint32 matronId,\r\n        uint32 sireId,\r\n        uint16 generation,\r\n        uint64 cooldownEndBlock\r\n    ) {\r\n        PetBase.Pet storage pet = pets[_petId];\r\n        genes = pet.genes;\r\n        birthTime = pet.birthTime;\r\n        matronId = pet.matronId;\r\n        sireId = pet.sireId;\r\n        generation = pet.generation;\r\n        cooldownEndBlock = pet.cooldownEndBlock;\r\n    }\r\n\r\n    function _getCooldowns() internal view returns (uint32[] memory) {\r\n        uint32[] memory _cooldowns = new uint32[](cooldowns.length);\r\n        for (uint256 i = 0; i < cooldowns.length; i++) {\r\n            _cooldowns[i] = cooldowns[i];\r\n        }\r\n        return _cooldowns;\r\n    }\r\n\r\n    function _owns(address _claimant, uint256 _tokenId) internal view returns (bool) {\r\n        return ownerOf(_tokenId) == _claimant;\r\n    }\r\n}\r\n",
  "sourcePath": "C:\\Users\\cheny\\Documents\\GitHub\\crypto-pet\\contracts\\PetOwnership.sol",
  "compiler": {
    "name": "solc",
    "version": "0.8.19+commit.7dd6d404.Emscripten.clang"
  },
  "schemaVersion": "3.4.13",
  "updatedAt": "2023-05-01T23:27:45.107Z",
  "devdoc": {
    "events": {
      "Approval(address,address,uint256)": {
        "details": "Emitted when `owner` enables `approved` to manage the `tokenId` token."
      },
      "ApprovalForAll(address,address,bool)": {
        "details": "Emitted when `owner` enables or disables (`approved`) `operator` to manage all of its assets."
      },
      "Transfer(address,address,uint256)": {
        "details": "Emitted when `tokenId` token is transferred from `from` to `to`."
      }
    },
    "kind": "dev",
    "methods": {
      "approve(address,uint256)": {
        "details": "See {IERC721-approve}."
      },
      "balanceOf(address)": {
        "details": "See {IERC721-balanceOf}."
      },
      "getApproved(uint256)": {
        "details": "See {IERC721-getApproved}."
      },
      "isApprovedForAll(address,address)": {
        "details": "See {IERC721-isApprovedForAll}."
      },
      "name()": {
        "details": "See {IERC721Metadata-name}."
      },
      "owner()": {
        "details": "Returns the address of the current owner."
      },
      "ownerOf(uint256)": {
        "details": "See {IERC721-ownerOf}."
      },
      "renounceOwnership()": {
        "details": "Leaves the contract without owner. It will not be possible to call `onlyOwner` functions anymore. Can only be called by the current owner. NOTE: Renouncing ownership will leave the contract without an owner, thereby removing any functionality that is only available to the owner."
      },
      "safeTransferFrom(address,address,uint256)": {
        "details": "See {IERC721-safeTransferFrom}."
      },
      "safeTransferFrom(address,address,uint256,bytes)": {
        "details": "See {IERC721-safeTransferFrom}."
      },
      "setApprovalForAll(address,bool)": {
        "details": "See {IERC721-setApprovalForAll}."
      },
      "supportsInterface(bytes4)": {
        "details": "See {IERC165-supportsInterface}."
      },
      "symbol()": {
        "details": "See {IERC721Metadata-symbol}."
      },
      "tokenByIndex(uint256)": {
        "details": "See {IERC721Enumerable-tokenByIndex}."
      },
      "tokenOfOwnerByIndex(address,uint256)": {
        "details": "See {IERC721Enumerable-tokenOfOwnerByIndex}."
      },
      "tokenURI(uint256)": {
        "details": "See {IERC721Metadata-tokenURI}."
      },
      "totalSupply()": {
        "details": "See {IERC721Enumerable-totalSupply}."
      },
      "transferFrom(address,address,uint256)": {
        "details": "See {IERC721-transferFrom}."
      },
      "transferOwnership(address)": {
        "details": "Transfers ownership of the contract to a new account (`newOwner`). Can only be called by the current owner."
      }
    },
    "version": 1
  },
  "userdoc": {
    "kind": "user",
    "methods": {},
    "version": 1
  }
}